{"contracts/Beer4Crypto.sol":{"Beer4Crypto":{"abi":[{"anonymous":false,"inputs":[{"indexed":false,"internalType":"string","name":"name","type":"string"},{"indexed":false,"internalType":"bytes32","name":"id","type":"bytes32"}],"name":"GroupCreated","type":"event"},{"inputs":[{"internalType":"string","name":"groupName","type":"string"},{"internalType":"string","name":"nickname","type":"string"}],"name":"createGroup","outputs":[],"stateMutability":"nonpayable","type":"function"},{"inputs":[{"internalType":"bytes32","name":"groupId","type":"bytes32"},{"internalType":"address","name":"member","type":"address"}],"name":"isMember","outputs":[{"internalType":"bool","name":"","type":"bool"}],"stateMutability":"view","type":"function"},{"inputs":[{"internalType":"address","name":"member","type":"address"}],"name":"listGroupsForMember","outputs":[{"components":[{"internalType":"bytes32","name":"id","type":"bytes32"},{"internalType":"string","name":"name","type":"string"}],"internalType":"struct Beer4Crypto.Group[]","name":"","type":"tuple[]"}],"stateMutability":"view","type":"function"}],"devdoc":{"kind":"dev","methods":{},"version":1},"evm":{"bytecode":{"linkReferences":{},"object":"608060405234801561001057600080fd5b50610a26806100206000396000f3fe608060405234801561001057600080fd5b50600436106100415760003560e01c806310ad56b3146100465780631e4a97dd1461006f57806355fbf68a14610084575b600080fd5b61005961005436600461048f565b6100a4565b60405161006691906104d6565b60405180910390f35b61008261007d3660046105e7565b610216565b005b61009761009236600461064f565b61033e565b604051610066919061077a565b60008281526020818152604080832080548251818502810185019093528083528493849084015b828210156101a4576000848152602090819020604080518082019091526002850290910180546001600160a01b031682526001810180549293919291840191610113906107a1565b80601f016020809104026020016040519081016040528092919081815260200182805461013f906107a1565b801561018c5780601f106101615761010080835404028352916020019161018c565b820191906000526020600020905b81548152906001019060200180831161016f57829003601f168201915b505050505081525050815260200190600101906100cb565b50505050905060005b815181101561020957836001600160a01b03168282815181106101d2576101d26107cd565b6020026020010151600001516001600160a01b0316036101f757600192505050610210565b80610201816107f9565b9150506101ad565b5060009150505b92915050565b60008242434060405160200161022e93929190610838565b60408051601f1981840301815282825280516020918201208383018352808452838201878152835180850185523380825281850189905260009081526001808652958120805480880182559082529490208651600290950201938455905191955092849291908201906102a1908261090c565b505050600083815260208181526040822080546001808201835591845292829020845160029094020180546001600160a01b0319166001600160a01b03909416939093178355908301518392918201906102fb908261090c565b5050507f50032f83d3694b97a61f9796312b558744e9fb13361854acd23911fdce1f9a91858460405161032f9291906109d0565b60405180910390a15050505050565b6001600160a01b0381166000908152600160209081526040808320805482518185028101850190935280835260609492939192909184015b828210156104445783829060005260206000209060020201604051806040016040529081600082015481526020016001820180546103b3906107a1565b80601f01602080910402602001604051908101604052809291908181526020018280546103df906107a1565b801561042c5780601f106104015761010080835404028352916020019161042c565b820191906000526020600020905b81548152906001019060200180831161040f57829003601f168201915b50505050508152505081526020019060010190610376565b505050509050919050565b805b811461045c57600080fd5b50565b80356102108161044f565b60006001600160a01b038216610210565b6104518161046a565b80356102108161047b565b600080604083850312156104a5576104a5600080fd5b60006104b1858561045f565b92505060206104c285828601610484565b9150509250929050565b8015155b82525050565b6020810161021082846104cc565b634e487b7160e01b600052604160045260246000fd5b601f19601f830116810181811067ffffffffffffffff82111715610520576105206104e4565b6040525050565b600061053260405190565b905061053e82826104fa565b919050565b600067ffffffffffffffff82111561055d5761055d6104e4565b601f19601f83011660200192915050565b82818337506000910152565b600061058d61058884610543565b610527565b9050828152602081018484840111156105a8576105a8600080fd5b6105b384828561056e565b509392505050565b600082601f8301126105cf576105cf600080fd5b81356105df84826020860161057a565b949350505050565b600080604083850312156105fd576105fd600080fd5b823567ffffffffffffffff81111561061757610617600080fd5b610623858286016105bb565b925050602083013567ffffffffffffffff81111561064357610643600080fd5b6104c2858286016105bb565b60006020828403121561066457610664600080fd5b60006105df8484610484565b806104d0565b60005b83811015610691578181015183820152602001610679565b50506000910152565b60006106a4825190565b8084526020840193506106bb818560208601610676565b601f01601f19169290920192915050565b805160009060408401906106e08582610670565b50602083015184820360208601526106f8828261069a565b95945050505050565b600061070d83836106cc565b9392505050565b600061071e825190565b808452602084019350836020820285016107388560200190565b8060005b8581101561076d57848403895281516107558582610701565b94506020830160209a909a019992505060010161073c565b5091979650505050505050565b6020808252810161070d8184610714565b634e487b7160e01b600052602260045260246000fd5b6002810460018216806107b557607f821691505b6020821081036107c7576107c761078b565b50919050565b634e487b7160e01b600052603260045260246000fd5b634e487b7160e01b600052601160045260246000fd5b6000600019820361080c5761080c6107e3565b5060010190565b600061081d825190565b61082b818560208601610676565b9290920192915050565b90565b60006108448286610813565b91506108508285610670565b6020820191506108608284610670565b506020019392505050565b60006102106108358381565b6108808361086b565b815460001960089490940293841b1916921b91909117905550565b60006108a8818484610877565b505050565b818110156108c8576108c060008261089b565b6001016108ad565b5050565b601f8211156108a8576000818152602090206020601f850104810160208510156108f35750805b6109056020601f8601048301826108ad565b5050505050565b815167ffffffffffffffff811115610926576109266104e4565b61093082546107a1565b61093b8282856108cc565b6020601f83116001811461096f57600084156109575750858201515b600019600886021c19811660028602178655506109c8565b600085815260208120601f198616915b8281101561099f578885015182556020948501946001909201910161097f565b868310156109bb5784890151600019601f89166008021c191682555b6001600288020188555050505b505050505050565b604080825281016109e1818561069a565b905061070d602083018461067056fea26469706673582212201b3e1e43039b405d83d8a89ae55b7773eabf85c66d97a8f169bfc71daa91331264736f6c63430008130033","opcodes":"PUSH1 0x80 PUSH1 0x40 MSTORE CALLVALUE DUP1 ISZERO PUSH2 0x10 JUMPI PUSH1 0x0 DUP1 REVERT JUMPDEST POP PUSH2 0xA26 DUP1 PUSH2 0x20 PUSH1 0x0 CODECOPY PUSH1 0x0 RETURN INVALID PUSH1 0x80 PUSH1 0x40 MSTORE CALLVALUE DUP1 ISZERO PUSH2 0x10 JUMPI PUSH1 0x0 DUP1 REVERT JUMPDEST POP PUSH1 0x4 CALLDATASIZE LT PUSH2 0x41 JUMPI PUSH1 0x0 CALLDATALOAD PUSH1 0xE0 SHR DUP1 PUSH4 0x10AD56B3 EQ PUSH2 0x46 JUMPI DUP1 PUSH4 0x1E4A97DD EQ PUSH2 0x6F JUMPI DUP1 PUSH4 0x55FBF68A EQ PUSH2 0x84 JUMPI JUMPDEST PUSH1 0x0 DUP1 REVERT JUMPDEST PUSH2 0x59 PUSH2 0x54 CALLDATASIZE PUSH1 0x4 PUSH2 0x48F JUMP JUMPDEST PUSH2 0xA4 JUMP JUMPDEST PUSH1 0x40 MLOAD PUSH2 0x66 SWAP2 SWAP1 PUSH2 0x4D6 JUMP JUMPDEST PUSH1 0x40 MLOAD DUP1 SWAP2 SUB SWAP1 RETURN JUMPDEST PUSH2 0x82 PUSH2 0x7D CALLDATASIZE PUSH1 0x4 PUSH2 0x5E7 JUMP JUMPDEST PUSH2 0x216 JUMP JUMPDEST STOP JUMPDEST PUSH2 0x97 PUSH2 0x92 CALLDATASIZE PUSH1 0x4 PUSH2 0x64F JUMP JUMPDEST PUSH2 0x33E JUMP JUMPDEST PUSH1 0x40 MLOAD PUSH2 0x66 SWAP2 SWAP1 PUSH2 0x77A JUMP JUMPDEST PUSH1 0x0 DUP3 DUP2 MSTORE PUSH1 0x20 DUP2 DUP2 MSTORE PUSH1 0x40 DUP1 DUP4 KECCAK256 DUP1 SLOAD DUP3 MLOAD DUP2 DUP6 MUL DUP2 ADD DUP6 ADD SWAP1 SWAP4 MSTORE DUP1 DUP4 MSTORE DUP5 SWAP4 DUP5 SWAP1 DUP5 ADD JUMPDEST DUP3 DUP3 LT ISZERO PUSH2 0x1A4 JUMPI PUSH1 0x0 DUP5 DUP2 MSTORE PUSH1 0x20 SWAP1 DUP2 SWAP1 KECCAK256 PUSH1 0x40 DUP1 MLOAD DUP1 DUP3 ADD SWAP1 SWAP2 MSTORE PUSH1 0x2 DUP6 MUL SWAP1 SWAP2 ADD DUP1 SLOAD PUSH1 0x1 PUSH1 0x1 PUSH1 0xA0 SHL SUB AND DUP3 MSTORE PUSH1 0x1 DUP2 ADD DUP1 SLOAD SWAP3 SWAP4 SWAP2 SWAP3 SWAP2 DUP5 ADD SWAP2 PUSH2 0x113 SWAP1 PUSH2 0x7A1 JUMP JUMPDEST DUP1 PUSH1 0x1F ADD PUSH1 0x20 DUP1 SWAP2 DIV MUL PUSH1 0x20 ADD PUSH1 0x40 MLOAD SWAP1 DUP2 ADD PUSH1 0x40 MSTORE DUP1 SWAP3 SWAP2 SWAP1 DUP2 DUP2 MSTORE PUSH1 0x20 ADD DUP3 DUP1 SLOAD PUSH2 0x13F SWAP1 PUSH2 0x7A1 JUMP JUMPDEST DUP1 ISZERO PUSH2 0x18C JUMPI DUP1 PUSH1 0x1F LT PUSH2 0x161 JUMPI PUSH2 0x100 DUP1 DUP4 SLOAD DIV MUL DUP4 MSTORE SWAP2 PUSH1 0x20 ADD SWAP2 PUSH2 0x18C JUMP JUMPDEST DUP3 ADD SWAP2 SWAP1 PUSH1 0x0 MSTORE PUSH1 0x20 PUSH1 0x0 KECCAK256 SWAP1 JUMPDEST DUP2 SLOAD DUP2 MSTORE SWAP1 PUSH1 0x1 ADD SWAP1 PUSH1 0x20 ADD DUP1 DUP4 GT PUSH2 0x16F JUMPI DUP3 SWAP1 SUB PUSH1 0x1F AND DUP3 ADD SWAP2 JUMPDEST POP POP POP POP POP DUP2 MSTORE POP POP DUP2 MSTORE PUSH1 0x20 ADD SWAP1 PUSH1 0x1 ADD SWAP1 PUSH2 0xCB JUMP JUMPDEST POP POP POP POP SWAP1 POP PUSH1 0x0 JUMPDEST DUP2 MLOAD DUP2 LT ISZERO PUSH2 0x209 JUMPI DUP4 PUSH1 0x1 PUSH1 0x1 PUSH1 0xA0 SHL SUB AND DUP3 DUP3 DUP2 MLOAD DUP2 LT PUSH2 0x1D2 JUMPI PUSH2 0x1D2 PUSH2 0x7CD JUMP JUMPDEST PUSH1 0x20 MUL PUSH1 0x20 ADD ADD MLOAD PUSH1 0x0 ADD MLOAD PUSH1 0x1 PUSH1 0x1 PUSH1 0xA0 SHL SUB AND SUB PUSH2 0x1F7 JUMPI PUSH1 0x1 SWAP3 POP POP POP PUSH2 0x210 JUMP JUMPDEST DUP1 PUSH2 0x201 DUP2 PUSH2 0x7F9 JUMP JUMPDEST SWAP2 POP POP PUSH2 0x1AD JUMP JUMPDEST POP PUSH1 0x0 SWAP2 POP POP JUMPDEST SWAP3 SWAP2 POP POP JUMP JUMPDEST PUSH1 0x0 DUP3 TIMESTAMP NUMBER BLOCKHASH PUSH1 0x40 MLOAD PUSH1 0x20 ADD PUSH2 0x22E SWAP4 SWAP3 SWAP2 SWAP1 PUSH2 0x838 JUMP JUMPDEST PUSH1 0x40 DUP1 MLOAD PUSH1 0x1F NOT DUP2 DUP5 SUB ADD DUP2 MSTORE DUP3 DUP3 MSTORE DUP1 MLOAD PUSH1 0x20 SWAP2 DUP3 ADD KECCAK256 DUP4 DUP4 ADD DUP4 MSTORE DUP1 DUP5 MSTORE DUP4 DUP3 ADD DUP8 DUP2 MSTORE DUP4 MLOAD DUP1 DUP6 ADD DUP6 MSTORE CALLER DUP1 DUP3 MSTORE DUP2 DUP6 ADD DUP10 SWAP1 MSTORE PUSH1 0x0 SWAP1 DUP2 MSTORE PUSH1 0x1 DUP1 DUP7 MSTORE SWAP6 DUP2 KECCAK256 DUP1 SLOAD DUP1 DUP9 ADD DUP3 SSTORE SWAP1 DUP3 MSTORE SWAP5 SWAP1 KECCAK256 DUP7 MLOAD PUSH1 0x2 SWAP1 SWAP6 MUL ADD SWAP4 DUP5 SSTORE SWAP1 MLOAD SWAP2 SWAP6 POP SWAP3 DUP5 SWAP3 SWAP2 SWAP1 DUP3 ADD SWAP1 PUSH2 0x2A1 SWAP1 DUP3 PUSH2 0x90C JUMP JUMPDEST POP POP POP PUSH1 0x0 DUP4 DUP2 MSTORE PUSH1 0x20 DUP2 DUP2 MSTORE PUSH1 0x40 DUP3 KECCAK256 DUP1 SLOAD PUSH1 0x1 DUP1 DUP3 ADD DUP4 SSTORE SWAP2 DUP5 MSTORE SWAP3 DUP3 SWAP1 KECCAK256 DUP5 MLOAD PUSH1 0x2 SWAP1 SWAP5 MUL ADD DUP1 SLOAD PUSH1 0x1 PUSH1 0x1 PUSH1 0xA0 SHL SUB NOT AND PUSH1 0x1 PUSH1 0x1 PUSH1 0xA0 SHL SUB SWAP1 SWAP5 AND SWAP4 SWAP1 SWAP4 OR DUP4 SSTORE SWAP1 DUP4 ADD MLOAD DUP4 SWAP3 SWAP2 DUP3 ADD SWAP1 PUSH2 0x2FB SWAP1 DUP3 PUSH2 0x90C JUMP JUMPDEST POP POP POP PUSH32 0x50032F83D3694B97A61F9796312B558744E9FB13361854ACD23911FDCE1F9A91 DUP6 DUP5 PUSH1 0x40 MLOAD PUSH2 0x32F SWAP3 SWAP2 SWAP1 PUSH2 0x9D0 JUMP JUMPDEST PUSH1 0x40 MLOAD DUP1 SWAP2 SUB SWAP1 LOG1 POP POP POP POP POP JUMP JUMPDEST PUSH1 0x1 PUSH1 0x1 PUSH1 0xA0 SHL SUB DUP2 AND PUSH1 0x0 SWAP1 DUP2 MSTORE PUSH1 0x1 PUSH1 0x20 SWAP1 DUP2 MSTORE PUSH1 0x40 DUP1 DUP4 KECCAK256 DUP1 SLOAD DUP3 MLOAD DUP2 DUP6 MUL DUP2 ADD DUP6 ADD SWAP1 SWAP4 MSTORE DUP1 DUP4 MSTORE PUSH1 0x60 SWAP5 SWAP3 SWAP4 SWAP2 SWAP3 SWAP1 SWAP2 DUP5 ADD JUMPDEST DUP3 DUP3 LT ISZERO PUSH2 0x444 JUMPI DUP4 DUP3 SWAP1 PUSH1 0x0 MSTORE PUSH1 0x20 PUSH1 0x0 KECCAK256 SWAP1 PUSH1 0x2 MUL ADD PUSH1 0x40 MLOAD DUP1 PUSH1 0x40 ADD PUSH1 0x40 MSTORE SWAP1 DUP2 PUSH1 0x0 DUP3 ADD SLOAD DUP2 MSTORE PUSH1 0x20 ADD PUSH1 0x1 DUP3 ADD DUP1 SLOAD PUSH2 0x3B3 SWAP1 PUSH2 0x7A1 JUMP JUMPDEST DUP1 PUSH1 0x1F ADD PUSH1 0x20 DUP1 SWAP2 DIV MUL PUSH1 0x20 ADD PUSH1 0x40 MLOAD SWAP1 DUP2 ADD PUSH1 0x40 MSTORE DUP1 SWAP3 SWAP2 SWAP1 DUP2 DUP2 MSTORE PUSH1 0x20 ADD DUP3 DUP1 SLOAD PUSH2 0x3DF SWAP1 PUSH2 0x7A1 JUMP JUMPDEST DUP1 ISZERO PUSH2 0x42C JUMPI DUP1 PUSH1 0x1F LT PUSH2 0x401 JUMPI PUSH2 0x100 DUP1 DUP4 SLOAD DIV MUL DUP4 MSTORE SWAP2 PUSH1 0x20 ADD SWAP2 PUSH2 0x42C JUMP JUMPDEST DUP3 ADD SWAP2 SWAP1 PUSH1 0x0 MSTORE PUSH1 0x20 PUSH1 0x0 KECCAK256 SWAP1 JUMPDEST DUP2 SLOAD DUP2 MSTORE SWAP1 PUSH1 0x1 ADD SWAP1 PUSH1 0x20 ADD DUP1 DUP4 GT PUSH2 0x40F JUMPI DUP3 SWAP1 SUB PUSH1 0x1F AND DUP3 ADD SWAP2 JUMPDEST POP POP POP POP POP DUP2 MSTORE POP POP DUP2 MSTORE PUSH1 0x20 ADD SWAP1 PUSH1 0x1 ADD SWAP1 PUSH2 0x376 JUMP JUMPDEST POP POP POP POP SWAP1 POP SWAP2 SWAP1 POP JUMP JUMPDEST DUP1 JUMPDEST DUP2 EQ PUSH2 0x45C JUMPI PUSH1 0x0 DUP1 REVERT JUMPDEST POP JUMP JUMPDEST DUP1 CALLDATALOAD PUSH2 0x210 DUP2 PUSH2 0x44F JUMP JUMPDEST PUSH1 0x0 PUSH1 0x1 PUSH1 0x1 PUSH1 0xA0 SHL SUB DUP3 AND PUSH2 0x210 JUMP JUMPDEST PUSH2 0x451 DUP2 PUSH2 0x46A JUMP JUMPDEST DUP1 CALLDATALOAD PUSH2 0x210 DUP2 PUSH2 0x47B JUMP JUMPDEST PUSH1 0x0 DUP1 PUSH1 0x40 DUP4 DUP6 SUB SLT ISZERO PUSH2 0x4A5 JUMPI PUSH2 0x4A5 PUSH1 0x0 DUP1 REVERT JUMPDEST PUSH1 0x0 PUSH2 0x4B1 DUP6 DUP6 PUSH2 0x45F JUMP JUMPDEST SWAP3 POP POP PUSH1 0x20 PUSH2 0x4C2 DUP6 DUP3 DUP7 ADD PUSH2 0x484 JUMP JUMPDEST SWAP2 POP POP SWAP3 POP SWAP3 SWAP1 POP JUMP JUMPDEST DUP1 ISZERO ISZERO JUMPDEST DUP3 MSTORE POP POP JUMP JUMPDEST PUSH1 0x20 DUP2 ADD PUSH2 0x210 DUP3 DUP5 PUSH2 0x4CC JUMP JUMPDEST PUSH4 0x4E487B71 PUSH1 0xE0 SHL PUSH1 0x0 MSTORE PUSH1 0x41 PUSH1 0x4 MSTORE PUSH1 0x24 PUSH1 0x0 REVERT JUMPDEST PUSH1 0x1F NOT PUSH1 0x1F DUP4 ADD AND DUP2 ADD DUP2 DUP2 LT PUSH8 0xFFFFFFFFFFFFFFFF DUP3 GT OR ISZERO PUSH2 0x520 JUMPI PUSH2 0x520 PUSH2 0x4E4 JUMP JUMPDEST PUSH1 0x40 MSTORE POP POP JUMP JUMPDEST PUSH1 0x0 PUSH2 0x532 PUSH1 0x40 MLOAD SWAP1 JUMP JUMPDEST SWAP1 POP PUSH2 0x53E DUP3 DUP3 PUSH2 0x4FA JUMP JUMPDEST SWAP2 SWAP1 POP JUMP JUMPDEST PUSH1 0x0 PUSH8 0xFFFFFFFFFFFFFFFF DUP3 GT ISZERO PUSH2 0x55D JUMPI PUSH2 0x55D PUSH2 0x4E4 JUMP JUMPDEST PUSH1 0x1F NOT PUSH1 0x1F DUP4 ADD AND PUSH1 0x20 ADD SWAP3 SWAP2 POP POP JUMP JUMPDEST DUP3 DUP2 DUP4 CALLDATACOPY POP PUSH1 0x0 SWAP2 ADD MSTORE JUMP JUMPDEST PUSH1 0x0 PUSH2 0x58D PUSH2 0x588 DUP5 PUSH2 0x543 JUMP JUMPDEST PUSH2 0x527 JUMP JUMPDEST SWAP1 POP DUP3 DUP2 MSTORE PUSH1 0x20 DUP2 ADD DUP5 DUP5 DUP5 ADD GT ISZERO PUSH2 0x5A8 JUMPI PUSH2 0x5A8 PUSH1 0x0 DUP1 REVERT JUMPDEST PUSH2 0x5B3 DUP5 DUP3 DUP6 PUSH2 0x56E JUMP JUMPDEST POP SWAP4 SWAP3 POP POP POP JUMP JUMPDEST PUSH1 0x0 DUP3 PUSH1 0x1F DUP4 ADD SLT PUSH2 0x5CF JUMPI PUSH2 0x5CF PUSH1 0x0 DUP1 REVERT JUMPDEST DUP2 CALLDATALOAD PUSH2 0x5DF DUP5 DUP3 PUSH1 0x20 DUP7 ADD PUSH2 0x57A JUMP JUMPDEST SWAP5 SWAP4 POP POP POP POP JUMP JUMPDEST PUSH1 0x0 DUP1 PUSH1 0x40 DUP4 DUP6 SUB SLT ISZERO PUSH2 0x5FD JUMPI PUSH2 0x5FD PUSH1 0x0 DUP1 REVERT JUMPDEST DUP3 CALLDATALOAD PUSH8 0xFFFFFFFFFFFFFFFF DUP2 GT ISZERO PUSH2 0x617 JUMPI PUSH2 0x617 PUSH1 0x0 DUP1 REVERT JUMPDEST PUSH2 0x623 DUP6 DUP3 DUP7 ADD PUSH2 0x5BB JUMP JUMPDEST SWAP3 POP POP PUSH1 0x20 DUP4 ADD CALLDATALOAD PUSH8 0xFFFFFFFFFFFFFFFF DUP2 GT ISZERO PUSH2 0x643 JUMPI PUSH2 0x643 PUSH1 0x0 DUP1 REVERT JUMPDEST PUSH2 0x4C2 DUP6 DUP3 DUP7 ADD PUSH2 0x5BB JUMP JUMPDEST PUSH1 0x0 PUSH1 0x20 DUP3 DUP5 SUB SLT ISZERO PUSH2 0x664 JUMPI PUSH2 0x664 PUSH1 0x0 DUP1 REVERT JUMPDEST PUSH1 0x0 PUSH2 0x5DF DUP5 DUP5 PUSH2 0x484 JUMP JUMPDEST DUP1 PUSH2 0x4D0 JUMP JUMPDEST PUSH1 0x0 JUMPDEST DUP4 DUP2 LT ISZERO PUSH2 0x691 JUMPI DUP2 DUP2 ADD MLOAD DUP4 DUP3 ADD MSTORE PUSH1 0x20 ADD PUSH2 0x679 JUMP JUMPDEST POP POP PUSH1 0x0 SWAP2 ADD MSTORE JUMP JUMPDEST PUSH1 0x0 PUSH2 0x6A4 DUP3 MLOAD SWAP1 JUMP JUMPDEST DUP1 DUP5 MSTORE PUSH1 0x20 DUP5 ADD SWAP4 POP PUSH2 0x6BB DUP2 DUP6 PUSH1 0x20 DUP7 ADD PUSH2 0x676 JUMP JUMPDEST PUSH1 0x1F ADD PUSH1 0x1F NOT AND SWAP3 SWAP1 SWAP3 ADD SWAP3 SWAP2 POP POP JUMP JUMPDEST DUP1 MLOAD PUSH1 0x0 SWAP1 PUSH1 0x40 DUP5 ADD SWAP1 PUSH2 0x6E0 DUP6 DUP3 PUSH2 0x670 JUMP JUMPDEST POP PUSH1 0x20 DUP4 ADD MLOAD DUP5 DUP3 SUB PUSH1 0x20 DUP7 ADD MSTORE PUSH2 0x6F8 DUP3 DUP3 PUSH2 0x69A JUMP JUMPDEST SWAP6 SWAP5 POP POP POP POP POP JUMP JUMPDEST PUSH1 0x0 PUSH2 0x70D DUP4 DUP4 PUSH2 0x6CC JUMP JUMPDEST SWAP4 SWAP3 POP POP POP JUMP JUMPDEST PUSH1 0x0 PUSH2 0x71E DUP3 MLOAD SWAP1 JUMP JUMPDEST DUP1 DUP5 MSTORE PUSH1 0x20 DUP5 ADD SWAP4 POP DUP4 PUSH1 0x20 DUP3 MUL DUP6 ADD PUSH2 0x738 DUP6 PUSH1 0x20 ADD SWAP1 JUMP JUMPDEST DUP1 PUSH1 0x0 JUMPDEST DUP6 DUP2 LT ISZERO PUSH2 0x76D JUMPI DUP5 DUP5 SUB DUP10 MSTORE DUP2 MLOAD PUSH2 0x755 DUP6 DUP3 PUSH2 0x701 JUMP JUMPDEST SWAP5 POP PUSH1 0x20 DUP4 ADD PUSH1 0x20 SWAP11 SWAP1 SWAP11 ADD SWAP10 SWAP3 POP POP PUSH1 0x1 ADD PUSH2 0x73C JUMP JUMPDEST POP SWAP2 SWAP8 SWAP7 POP POP POP POP POP POP POP JUMP JUMPDEST PUSH1 0x20 DUP1 DUP3 MSTORE DUP2 ADD PUSH2 0x70D DUP2 DUP5 PUSH2 0x714 JUMP JUMPDEST PUSH4 0x4E487B71 PUSH1 0xE0 SHL PUSH1 0x0 MSTORE PUSH1 0x22 PUSH1 0x4 MSTORE PUSH1 0x24 PUSH1 0x0 REVERT JUMPDEST PUSH1 0x2 DUP2 DIV PUSH1 0x1 DUP3 AND DUP1 PUSH2 0x7B5 JUMPI PUSH1 0x7F DUP3 AND SWAP2 POP JUMPDEST PUSH1 0x20 DUP3 LT DUP2 SUB PUSH2 0x7C7 JUMPI PUSH2 0x7C7 PUSH2 0x78B JUMP JUMPDEST POP SWAP2 SWAP1 POP JUMP JUMPDEST PUSH4 0x4E487B71 PUSH1 0xE0 SHL PUSH1 0x0 MSTORE PUSH1 0x32 PUSH1 0x4 MSTORE PUSH1 0x24 PUSH1 0x0 REVERT JUMPDEST PUSH4 0x4E487B71 PUSH1 0xE0 SHL PUSH1 0x0 MSTORE PUSH1 0x11 PUSH1 0x4 MSTORE PUSH1 0x24 PUSH1 0x0 REVERT JUMPDEST PUSH1 0x0 PUSH1 0x0 NOT DUP3 SUB PUSH2 0x80C JUMPI PUSH2 0x80C PUSH2 0x7E3 JUMP JUMPDEST POP PUSH1 0x1 ADD SWAP1 JUMP JUMPDEST PUSH1 0x0 PUSH2 0x81D DUP3 MLOAD SWAP1 JUMP JUMPDEST PUSH2 0x82B DUP2 DUP6 PUSH1 0x20 DUP7 ADD PUSH2 0x676 JUMP JUMPDEST SWAP3 SWAP1 SWAP3 ADD SWAP3 SWAP2 POP POP JUMP JUMPDEST SWAP1 JUMP JUMPDEST PUSH1 0x0 PUSH2 0x844 DUP3 DUP7 PUSH2 0x813 JUMP JUMPDEST SWAP2 POP PUSH2 0x850 DUP3 DUP6 PUSH2 0x670 JUMP JUMPDEST PUSH1 0x20 DUP3 ADD SWAP2 POP PUSH2 0x860 DUP3 DUP5 PUSH2 0x670 JUMP JUMPDEST POP PUSH1 0x20 ADD SWAP4 SWAP3 POP POP POP JUMP JUMPDEST PUSH1 0x0 PUSH2 0x210 PUSH2 0x835 DUP4 DUP2 JUMP JUMPDEST PUSH2 0x880 DUP4 PUSH2 0x86B JUMP JUMPDEST DUP2 SLOAD PUSH1 0x0 NOT PUSH1 0x8 SWAP5 SWAP1 SWAP5 MUL SWAP4 DUP5 SHL NOT AND SWAP3 SHL SWAP2 SWAP1 SWAP2 OR SWAP1 SSTORE POP JUMP JUMPDEST PUSH1 0x0 PUSH2 0x8A8 DUP2 DUP5 DUP5 PUSH2 0x877 JUMP JUMPDEST POP POP POP JUMP JUMPDEST DUP2 DUP2 LT ISZERO PUSH2 0x8C8 JUMPI PUSH2 0x8C0 PUSH1 0x0 DUP3 PUSH2 0x89B JUMP JUMPDEST PUSH1 0x1 ADD PUSH2 0x8AD JUMP JUMPDEST POP POP JUMP JUMPDEST PUSH1 0x1F DUP3 GT ISZERO PUSH2 0x8A8 JUMPI PUSH1 0x0 DUP2 DUP2 MSTORE PUSH1 0x20 SWAP1 KECCAK256 PUSH1 0x20 PUSH1 0x1F DUP6 ADD DIV DUP2 ADD PUSH1 0x20 DUP6 LT ISZERO PUSH2 0x8F3 JUMPI POP DUP1 JUMPDEST PUSH2 0x905 PUSH1 0x20 PUSH1 0x1F DUP7 ADD DIV DUP4 ADD DUP3 PUSH2 0x8AD JUMP JUMPDEST POP POP POP POP POP JUMP JUMPDEST DUP2 MLOAD PUSH8 0xFFFFFFFFFFFFFFFF DUP2 GT ISZERO PUSH2 0x926 JUMPI PUSH2 0x926 PUSH2 0x4E4 JUMP JUMPDEST PUSH2 0x930 DUP3 SLOAD PUSH2 0x7A1 JUMP JUMPDEST PUSH2 0x93B DUP3 DUP3 DUP6 PUSH2 0x8CC JUMP JUMPDEST PUSH1 0x20 PUSH1 0x1F DUP4 GT PUSH1 0x1 DUP2 EQ PUSH2 0x96F JUMPI PUSH1 0x0 DUP5 ISZERO PUSH2 0x957 JUMPI POP DUP6 DUP3 ADD MLOAD JUMPDEST PUSH1 0x0 NOT PUSH1 0x8 DUP7 MUL SHR NOT DUP2 AND PUSH1 0x2 DUP7 MUL OR DUP7 SSTORE POP PUSH2 0x9C8 JUMP JUMPDEST PUSH1 0x0 DUP6 DUP2 MSTORE PUSH1 0x20 DUP2 KECCAK256 PUSH1 0x1F NOT DUP7 AND SWAP2 JUMPDEST DUP3 DUP2 LT ISZERO PUSH2 0x99F JUMPI DUP9 DUP6 ADD MLOAD DUP3 SSTORE PUSH1 0x20 SWAP5 DUP6 ADD SWAP5 PUSH1 0x1 SWAP1 SWAP3 ADD SWAP2 ADD PUSH2 0x97F JUMP JUMPDEST DUP7 DUP4 LT ISZERO PUSH2 0x9BB JUMPI DUP5 DUP10 ADD MLOAD PUSH1 0x0 NOT PUSH1 0x1F DUP10 AND PUSH1 0x8 MUL SHR NOT AND DUP3 SSTORE JUMPDEST PUSH1 0x1 PUSH1 0x2 DUP9 MUL ADD DUP9 SSTORE POP POP POP JUMPDEST POP POP POP POP POP POP JUMP JUMPDEST PUSH1 0x40 DUP1 DUP3 MSTORE DUP2 ADD PUSH2 0x9E1 DUP2 DUP6 PUSH2 0x69A JUMP JUMPDEST SWAP1 POP PUSH2 0x70D PUSH1 0x20 DUP4 ADD DUP5 PUSH2 0x670 JUMP INVALID LOG2 PUSH5 0x6970667358 0x22 SLT KECCAK256 SHL RETURNDATACOPY 0x1E NUMBER SUB SWAP12 BLOCKHASH 0x5D DUP4 0xD8 0xA8 SWAP11 0xE5 JUMPDEST PUSH24 0x73EABF85C66D97A8F169BFC71DAA91331264736F6C634300 ADDMOD SGT STOP CALLER "},"gasEstimates":{"creation":{"codeDepositCost":"519600","executionCost":"556","totalCost":"520156"},"external":{"createGroup(string,string)":"infinite","isMember(bytes32,address)":"infinite","listGroupsForMember(address)":"infinite"}},"methodIdentifiers":{"createGroup(string,string)":"1e4a97dd","isMember(bytes32,address)":"10ad56b3","listGroupsForMember(address)":"55fbf68a"}},"storageLayout":{"storage":[{"astId":76,"contract":"contracts/Beer4Crypto.sol:Beer4Crypto","label":"groupMembers","offset":0,"slot":"0","type":"t_mapping(t_bytes32,t_array(t_struct(Member)70_storage)dyn_storage)"},{"astId":82,"contract":"contracts/Beer4Crypto.sol:Beer4Crypto","label":"memberGroups","offset":0,"slot":"1","type":"t_mapping(t_address,t_array(t_struct(Group)65_storage)dyn_storage)"}],"types":{"t_address":{"encoding":"inplace","label":"address","numberOfBytes":"20"},"t_array(t_struct(Group)65_storage)dyn_storage":{"base":"t_struct(Group)65_storage","encoding":"dynamic_array","label":"struct Beer4Crypto.Group[]","numberOfBytes":"32"},"t_array(t_struct(Member)70_storage)dyn_storage":{"base":"t_struct(Member)70_storage","encoding":"dynamic_array","label":"struct Beer4Crypto.Member[]","numberOfBytes":"32"},"t_bytes32":{"encoding":"inplace","label":"bytes32","numberOfBytes":"32"},"t_mapping(t_address,t_array(t_struct(Group)65_storage)dyn_storage)":{"encoding":"mapping","key":"t_address","label":"mapping(address => struct Beer4Crypto.Group[])","numberOfBytes":"32","value":"t_array(t_struct(Group)65_storage)dyn_storage"},"t_mapping(t_bytes32,t_array(t_struct(Member)70_storage)dyn_storage)":{"encoding":"mapping","key":"t_bytes32","label":"mapping(bytes32 => struct Beer4Crypto.Member[])","numberOfBytes":"32","value":"t_array(t_struct(Member)70_storage)dyn_storage"},"t_string_storage":{"encoding":"bytes","label":"string","numberOfBytes":"32"},"t_struct(Group)65_storage":{"encoding":"inplace","label":"struct Beer4Crypto.Group","members":[{"astId":62,"contract":"contracts/Beer4Crypto.sol:Beer4Crypto","label":"id","offset":0,"slot":"0","type":"t_bytes32"},{"astId":64,"contract":"contracts/Beer4Crypto.sol:Beer4Crypto","label":"name","offset":0,"slot":"1","type":"t_string_storage"}],"numberOfBytes":"64"},"t_struct(Member)70_storage":{"encoding":"inplace","label":"struct Beer4Crypto.Member","members":[{"astId":67,"contract":"contracts/Beer4Crypto.sol:Beer4Crypto","label":"member","offset":0,"slot":"0","type":"t_address"},{"astId":69,"contract":"contracts/Beer4Crypto.sol:Beer4Crypto","label":"nickname","offset":0,"slot":"1","type":"t_string_storage"}],"numberOfBytes":"64"}}},"userdoc":{"kind":"user","methods":{},"version":1}}}}