{
  "_format": "hh-sol-artifact-1",
  "contractName": "MyToken",
  "sourceName": "contracts/MyToken.sol",
  "abi": [
    {
      "inputs": [
        {
          "internalType": "address",
          "name": "owner",
          "type": "address"
        },
        {
          "internalType": "uint256",
          "name": "amount",
          "type": "uint256"
        }
      ],
      "stateMutability": "nonpayable",
      "type": "constructor"
    },
    {
      "anonymous": false,
      "inputs": [
        {
          "indexed": true,
          "internalType": "address",
          "name": "owner",
          "type": "address"
        },
        {
          "indexed": true,
          "internalType": "address",
          "name": "spender",
          "type": "address"
        },
        {
          "indexed": false,
          "internalType": "uint256",
          "name": "value",
          "type": "uint256"
        }
      ],
      "name": "Approval",
      "type": "event"
    },
    {
      "anonymous": false,
      "inputs": [
        {
          "indexed": true,
          "internalType": "address",
          "name": "previousOwner",
          "type": "address"
        },
        {
          "indexed": true,
          "internalType": "address",
          "name": "newOwner",
          "type": "address"
        }
      ],
      "name": "OwnershipTransferred",
      "type": "event"
    },
    {
      "anonymous": false,
      "inputs": [
        {
          "indexed": false,
          "internalType": "address",
          "name": "account",
          "type": "address"
        }
      ],
      "name": "Paused",
      "type": "event"
    },
    {
      "anonymous": false,
      "inputs": [
        {
          "indexed": true,
          "internalType": "bytes32",
          "name": "role",
          "type": "bytes32"
        },
        {
          "indexed": true,
          "internalType": "bytes32",
          "name": "previousAdminRole",
          "type": "bytes32"
        },
        {
          "indexed": true,
          "internalType": "bytes32",
          "name": "newAdminRole",
          "type": "bytes32"
        }
      ],
      "name": "RoleAdminChanged",
      "type": "event"
    },
    {
      "anonymous": false,
      "inputs": [
        {
          "indexed": true,
          "internalType": "bytes32",
          "name": "role",
          "type": "bytes32"
        },
        {
          "indexed": true,
          "internalType": "address",
          "name": "account",
          "type": "address"
        },
        {
          "indexed": true,
          "internalType": "address",
          "name": "sender",
          "type": "address"
        }
      ],
      "name": "RoleGranted",
      "type": "event"
    },
    {
      "anonymous": false,
      "inputs": [
        {
          "indexed": true,
          "internalType": "bytes32",
          "name": "role",
          "type": "bytes32"
        },
        {
          "indexed": true,
          "internalType": "address",
          "name": "account",
          "type": "address"
        },
        {
          "indexed": true,
          "internalType": "address",
          "name": "sender",
          "type": "address"
        }
      ],
      "name": "RoleRevoked",
      "type": "event"
    },
    {
      "anonymous": false,
      "inputs": [
        {
          "indexed": true,
          "internalType": "address",
          "name": "from",
          "type": "address"
        },
        {
          "indexed": true,
          "internalType": "address",
          "name": "to",
          "type": "address"
        },
        {
          "indexed": false,
          "internalType": "uint256",
          "name": "value",
          "type": "uint256"
        }
      ],
      "name": "Transfer",
      "type": "event"
    },
    {
      "anonymous": false,
      "inputs": [
        {
          "indexed": false,
          "internalType": "address",
          "name": "account",
          "type": "address"
        }
      ],
      "name": "Unpaused",
      "type": "event"
    },
    {
      "inputs": [],
      "name": "DEFAULT_ADMIN_ROLE",
      "outputs": [
        {
          "internalType": "bytes32",
          "name": "",
          "type": "bytes32"
        }
      ],
      "stateMutability": "view",
      "type": "function"
    },
    {
      "inputs": [],
      "name": "MINTER_ROLE",
      "outputs": [
        {
          "internalType": "bytes32",
          "name": "",
          "type": "bytes32"
        }
      ],
      "stateMutability": "view",
      "type": "function"
    },
    {
      "inputs": [],
      "name": "PAUSER_ROLE",
      "outputs": [
        {
          "internalType": "bytes32",
          "name": "",
          "type": "bytes32"
        }
      ],
      "stateMutability": "view",
      "type": "function"
    },
    {
      "inputs": [
        {
          "internalType": "address",
          "name": "owner",
          "type": "address"
        },
        {
          "internalType": "address",
          "name": "spender",
          "type": "address"
        }
      ],
      "name": "allowance",
      "outputs": [
        {
          "internalType": "uint256",
          "name": "",
          "type": "uint256"
        }
      ],
      "stateMutability": "view",
      "type": "function"
    },
    {
      "inputs": [
        {
          "internalType": "address",
          "name": "spender",
          "type": "address"
        },
        {
          "internalType": "uint256",
          "name": "amount",
          "type": "uint256"
        }
      ],
      "name": "approve",
      "outputs": [
        {
          "internalType": "bool",
          "name": "",
          "type": "bool"
        }
      ],
      "stateMutability": "nonpayable",
      "type": "function"
    },
    {
      "inputs": [
        {
          "internalType": "address",
          "name": "account",
          "type": "address"
        }
      ],
      "name": "balanceOf",
      "outputs": [
        {
          "internalType": "uint256",
          "name": "",
          "type": "uint256"
        }
      ],
      "stateMutability": "view",
      "type": "function"
    },
    {
      "inputs": [
        {
          "internalType": "uint256",
          "name": "amount",
          "type": "uint256"
        }
      ],
      "name": "burn",
      "outputs": [],
      "stateMutability": "nonpayable",
      "type": "function"
    },
    {
      "inputs": [
        {
          "internalType": "address",
          "name": "account",
          "type": "address"
        },
        {
          "internalType": "uint256",
          "name": "amount",
          "type": "uint256"
        }
      ],
      "name": "burnFrom",
      "outputs": [],
      "stateMutability": "nonpayable",
      "type": "function"
    },
    {
      "inputs": [],
      "name": "decimals",
      "outputs": [
        {
          "internalType": "uint8",
          "name": "",
          "type": "uint8"
        }
      ],
      "stateMutability": "view",
      "type": "function"
    },
    {
      "inputs": [
        {
          "internalType": "address",
          "name": "spender",
          "type": "address"
        },
        {
          "internalType": "uint256",
          "name": "subtractedValue",
          "type": "uint256"
        }
      ],
      "name": "decreaseAllowance",
      "outputs": [
        {
          "internalType": "bool",
          "name": "",
          "type": "bool"
        }
      ],
      "stateMutability": "nonpayable",
      "type": "function"
    },
    {
      "inputs": [
        {
          "internalType": "bytes32",
          "name": "role",
          "type": "bytes32"
        }
      ],
      "name": "getRoleAdmin",
      "outputs": [
        {
          "internalType": "bytes32",
          "name": "",
          "type": "bytes32"
        }
      ],
      "stateMutability": "view",
      "type": "function"
    },
    {
      "inputs": [
        {
          "internalType": "bytes32",
          "name": "role",
          "type": "bytes32"
        },
        {
          "internalType": "uint256",
          "name": "index",
          "type": "uint256"
        }
      ],
      "name": "getRoleMember",
      "outputs": [
        {
          "internalType": "address",
          "name": "",
          "type": "address"
        }
      ],
      "stateMutability": "view",
      "type": "function"
    },
    {
      "inputs": [
        {
          "internalType": "bytes32",
          "name": "role",
          "type": "bytes32"
        }
      ],
      "name": "getRoleMemberCount",
      "outputs": [
        {
          "internalType": "uint256",
          "name": "",
          "type": "uint256"
        }
      ],
      "stateMutability": "view",
      "type": "function"
    },
    {
      "inputs": [
        {
          "internalType": "bytes32",
          "name": "role",
          "type": "bytes32"
        },
        {
          "internalType": "address",
          "name": "account",
          "type": "address"
        }
      ],
      "name": "grantRole",
      "outputs": [],
      "stateMutability": "nonpayable",
      "type": "function"
    },
    {
      "inputs": [
        {
          "internalType": "bytes32",
          "name": "role",
          "type": "bytes32"
        },
        {
          "internalType": "address",
          "name": "account",
          "type": "address"
        }
      ],
      "name": "hasRole",
      "outputs": [
        {
          "internalType": "bool",
          "name": "",
          "type": "bool"
        }
      ],
      "stateMutability": "view",
      "type": "function"
    },
    {
      "inputs": [
        {
          "internalType": "address",
          "name": "spender",
          "type": "address"
        },
        {
          "internalType": "uint256",
          "name": "addedValue",
          "type": "uint256"
        }
      ],
      "name": "increaseAllowance",
      "outputs": [
        {
          "internalType": "bool",
          "name": "",
          "type": "bool"
        }
      ],
      "stateMutability": "nonpayable",
      "type": "function"
    },
    {
      "inputs": [
        {
          "internalType": "address",
          "name": "to",
          "type": "address"
        },
        {
          "internalType": "uint256",
          "name": "amount",
          "type": "uint256"
        }
      ],
      "name": "mint",
      "outputs": [],
      "stateMutability": "nonpayable",
      "type": "function"
    },
    {
      "inputs": [],
      "name": "name",
      "outputs": [
        {
          "internalType": "string",
          "name": "",
          "type": "string"
        }
      ],
      "stateMutability": "view",
      "type": "function"
    },
    {
      "inputs": [],
      "name": "owner",
      "outputs": [
        {
          "internalType": "address",
          "name": "",
          "type": "address"
        }
      ],
      "stateMutability": "view",
      "type": "function"
    },
    {
      "inputs": [],
      "name": "pause",
      "outputs": [],
      "stateMutability": "nonpayable",
      "type": "function"
    },
    {
      "inputs": [],
      "name": "paused",
      "outputs": [
        {
          "internalType": "bool",
          "name": "",
          "type": "bool"
        }
      ],
      "stateMutability": "view",
      "type": "function"
    },
    {
      "inputs": [],
      "name": "renounceOwnership",
      "outputs": [],
      "stateMutability": "nonpayable",
      "type": "function"
    },
    {
      "inputs": [
        {
          "internalType": "bytes32",
          "name": "role",
          "type": "bytes32"
        },
        {
          "internalType": "address",
          "name": "account",
          "type": "address"
        }
      ],
      "name": "renounceRole",
      "outputs": [],
      "stateMutability": "nonpayable",
      "type": "function"
    },
    {
      "inputs": [
        {
          "internalType": "bytes32",
          "name": "role",
          "type": "bytes32"
        },
        {
          "internalType": "address",
          "name": "account",
          "type": "address"
        }
      ],
      "name": "revokeRole",
      "outputs": [],
      "stateMutability": "nonpayable",
      "type": "function"
    },
    {
      "inputs": [
        {
          "internalType": "bytes4",
          "name": "interfaceId",
          "type": "bytes4"
        }
      ],
      "name": "supportsInterface",
      "outputs": [
        {
          "internalType": "bool",
          "name": "",
          "type": "bool"
        }
      ],
      "stateMutability": "view",
      "type": "function"
    },
    {
      "inputs": [],
      "name": "symbol",
      "outputs": [
        {
          "internalType": "string",
          "name": "",
          "type": "string"
        }
      ],
      "stateMutability": "view",
      "type": "function"
    },
    {
      "inputs": [],
      "name": "totalSupply",
      "outputs": [
        {
          "internalType": "uint256",
          "name": "",
          "type": "uint256"
        }
      ],
      "stateMutability": "view",
      "type": "function"
    },
    {
      "inputs": [
        {
          "internalType": "address",
          "name": "to",
          "type": "address"
        },
        {
          "internalType": "uint256",
          "name": "amount",
          "type": "uint256"
        }
      ],
      "name": "transfer",
      "outputs": [
        {
          "internalType": "bool",
          "name": "",
          "type": "bool"
        }
      ],
      "stateMutability": "nonpayable",
      "type": "function"
    },
    {
      "inputs": [
        {
          "internalType": "address",
          "name": "from",
          "type": "address"
        },
        {
          "internalType": "address",
          "name": "to",
          "type": "address"
        },
        {
          "internalType": "uint256",
          "name": "amount",
          "type": "uint256"
        }
      ],
      "name": "transferFrom",
      "outputs": [
        {
          "internalType": "bool",
          "name": "",
          "type": "bool"
        }
      ],
      "stateMutability": "nonpayable",
      "type": "function"
    },
    {
      "inputs": [
        {
          "internalType": "address",
          "name": "newOwner",
          "type": "address"
        }
      ],
      "name": "transferOwnership",
      "outputs": [],
      "stateMutability": "nonpayable",
      "type": "function"
    },
    {
      "inputs": [],
      "name": "unpause",
      "outputs": [],
      "stateMutability": "nonpayable",
      "type": "function"
    }
  ],
  "bytecode": "0x60806040523480156200001157600080fd5b506040516200416c3803806200416c8339818101604052810190620000379190620007d1565b6040518060400160405280600881526020017f4d7920546f6b656e0000000000000000000000000000000000000000000000008152506040518060400160405280600381526020017f4d5954000000000000000000000000000000000000000000000000000000000081525081818160059081620000b6919062000a88565b508060069081620000c8919062000a88565b5050506000600760006101000a81548160ff0219169083151502179055506200010a6000801b620000fe620001c860201b60201c565b620001d060201b60201c565b6200014b7f9f2df0fed2c77648de5860a4cc508cd0818c85b8b8a1ab4ceeef8d981c8956a66200013f620001c860201b60201c565b620001d060201b60201c565b6200018c7f65d7a28e3265b37a6474929f336521b332c1681b933f6cb9f3376673440d862a62000180620001c860201b60201c565b620001d060201b60201c565b5050620001ae620001a2620001c860201b60201c565b620001e660201b60201c565b620001c08282620002ac60201b60201c565b505062000d22565b600033905090565b620001e282826200041a60201b60201c565b5050565b6000600760019054906101000a900473ffffffffffffffffffffffffffffffffffffffff16905081600760016101000a81548173ffffffffffffffffffffffffffffffffffffffff021916908373ffffffffffffffffffffffffffffffffffffffff1602179055508173ffffffffffffffffffffffffffffffffffffffff168173ffffffffffffffffffffffffffffffffffffffff167f8be0079c531659141344cd1fd0a4f28419497f9722a3daafe3b4186f6b6457e060405160405180910390a35050565b600073ffffffffffffffffffffffffffffffffffffffff168273ffffffffffffffffffffffffffffffffffffffff16036200031e576040517f08c379a0000000000000000000000000000000000000000000000000000000008152600401620003159062000bd0565b60405180910390fd5b62000332600083836200045860201b60201c565b806004600082825462000346919062000c21565b9250508190555080600260008473ffffffffffffffffffffffffffffffffffffffff1673ffffffffffffffffffffffffffffffffffffffff168152602001908152602001600020600082825401925050819055508173ffffffffffffffffffffffffffffffffffffffff16600073ffffffffffffffffffffffffffffffffffffffff167fddf252ad1be2c89b69c2b068fc378daa952ba7f163c4a11628f55a4df523b3ef83604051620003fa919062000c6d565b60405180910390a362000416600083836200047060201b60201c565b5050565b6200042c82826200047560201b60201c565b6200045381600160008581526020019081526020016000206200056660201b90919060201c565b505050565b6200046b8383836200059e60201b60201c565b505050565b505050565b6200048782826200060960201b60201c565b6200056257600160008084815260200190815260200160002060000160008373ffffffffffffffffffffffffffffffffffffffff1673ffffffffffffffffffffffffffffffffffffffff16815260200190815260200160002060006101000a81548160ff02191690831515021790555062000507620001c860201b60201c565b73ffffffffffffffffffffffffffffffffffffffff168173ffffffffffffffffffffffffffffffffffffffff16837f2f8788117e7eff1d82e926ec794901d17c78024a50270940304540a733656f0d60405160405180910390a45b5050565b600062000596836000018373ffffffffffffffffffffffffffffffffffffffff1660001b6200067360201b60201c565b905092915050565b620005b1838383620006ed60201b60201c565b620005c1620006f260201b60201c565b1562000604576040517f08c379a0000000000000000000000000000000000000000000000000000000008152600401620005fb9062000d00565b60405180910390fd5b505050565b600080600084815260200190815260200160002060000160008373ffffffffffffffffffffffffffffffffffffffff1673ffffffffffffffffffffffffffffffffffffffff16815260200190815260200160002060009054906101000a900460ff16905092915050565b60006200068783836200070960201b60201c565b620006e2578260000182908060018154018082558091505060019003906000526020600020016000909190919091505582600001805490508360010160008481526020019081526020016000208190555060019050620006e7565b600090505b92915050565b505050565b6000600760009054906101000a900460ff16905090565b600080836001016000848152602001908152602001600020541415905092915050565b600080fd5b600073ffffffffffffffffffffffffffffffffffffffff82169050919050565b60006200075e8262000731565b9050919050565b620007708162000751565b81146200077c57600080fd5b50565b600081519050620007908162000765565b92915050565b6000819050919050565b620007ab8162000796565b8114620007b757600080fd5b50565b600081519050620007cb81620007a0565b92915050565b60008060408385031215620007eb57620007ea6200072c565b5b6000620007fb858286016200077f565b92505060206200080e85828601620007ba565b9150509250929050565b600081519050919050565b7f4e487b7100000000000000000000000000000000000000000000000000000000600052604160045260246000fd5b7f4e487b7100000000000000000000000000000000000000000000000000000000600052602260045260246000fd5b600060028204905060018216806200089a57607f821691505b602082108103620008b057620008af62000852565b5b50919050565b60008190508160005260206000209050919050565b60006020601f8301049050919050565b600082821b905092915050565b6000600883026200091a7fffffffffffffffffffffffffffffffffffffffffffffffffffffffffffffffff82620008db565b620009268683620008db565b95508019841693508086168417925050509392505050565b6000819050919050565b600062000969620009636200095d8462000796565b6200093e565b62000796565b9050919050565b6000819050919050565b620009858362000948565b6200099d620009948262000970565b848454620008e8565b825550505050565b600090565b620009b4620009a5565b620009c18184846200097a565b505050565b5b81811015620009e957620009dd600082620009aa565b600181019050620009c7565b5050565b601f82111562000a385762000a0281620008b6565b62000a0d84620008cb565b8101602085101562000a1d578190505b62000a3562000a2c85620008cb565b830182620009c6565b50505b505050565b600082821c905092915050565b600062000a5d6000198460080262000a3d565b1980831691505092915050565b600062000a78838362000a4a565b9150826002028217905092915050565b62000a938262000818565b67ffffffffffffffff81111562000aaf5762000aae62000823565b5b62000abb825462000881565b62000ac8828285620009ed565b600060209050601f83116001811462000b00576000841562000aeb578287015190505b62000af7858262000a6a565b86555062000b67565b601f19841662000b1086620008b6565b60005b8281101562000b3a5784890151825560018201915060208501945060208101905062000b13565b8683101562000b5a578489015162000b56601f89168262000a4a565b8355505b6001600288020188555050505b505050505050565b600082825260208201905092915050565b7f45524332303a206d696e7420746f20746865207a65726f206164647265737300600082015250565b600062000bb8601f8362000b6f565b915062000bc58262000b80565b602082019050919050565b6000602082019050818103600083015262000beb8162000ba9565b9050919050565b7f4e487b7100000000000000000000000000000000000000000000000000000000600052601160045260246000fd5b600062000c2e8262000796565b915062000c3b8362000796565b925082820190508082111562000c565762000c5562000bf2565b5b92915050565b62000c678162000796565b82525050565b600060208201905062000c84600083018462000c5c565b92915050565b7f45524332305061757361626c653a20746f6b656e207472616e7366657220776860008201527f696c652070617573656400000000000000000000000000000000000000000000602082015250565b600062000ce8602a8362000b6f565b915062000cf58262000c8a565b604082019050919050565b6000602082019050818103600083015262000d1b8162000cd9565b9050919050565b61343a8062000d326000396000f3fe608060405234801561001057600080fd5b50600436106101e55760003560e01c8063715018a61161010f578063a457c2d7116100a2578063d547741f11610071578063d547741f14610594578063dd62ed3e146105b0578063e63ab1e9146105e0578063f2fde38b146105fe576101e5565b8063a457c2d7146104e6578063a9059cbb14610516578063ca15c87314610546578063d539139314610576576101e5565b80639010d07c116100de5780639010d07c1461044a57806391d148541461047a57806395d89b41146104aa578063a217fddf146104c8576101e5565b8063715018a6146103fc57806379cc6790146104065780638456cb59146104225780638da5cb5b1461042c576101e5565b8063313ce5671161018757806340c10f191161015657806340c10f191461037657806342966c68146103925780635c975abb146103ae57806370a08231146103cc576101e5565b8063313ce5671461030257806336568abe14610320578063395093511461033c5780633f4ba83a1461036c576101e5565b806318160ddd116101c357806318160ddd1461026857806323b872dd14610286578063248a9ca3146102b65780632f2ff15d146102e6576101e5565b806301ffc9a7146101ea57806306fdde031461021a578063095ea7b314610238575b600080fd5b61020460048036038101906101ff9190612215565b61061a565b604051610211919061225d565b60405180910390f35b610222610694565b60405161022f9190612308565b60405180910390f35b610252600480360381019061024d91906123be565b610726565b60405161025f919061225d565b60405180910390f35b610270610749565b60405161027d919061240d565b60405180910390f35b6102a0600480360381019061029b9190612428565b610753565b6040516102ad919061225d565b60405180910390f35b6102d060048036038101906102cb91906124b1565b610782565b6040516102dd91906124ed565b60405180910390f35b61030060048036038101906102fb9190612508565b6107a1565b005b61030a6107c2565b6040516103179190612564565b60405180910390f35b61033a60048036038101906103359190612508565b6107cb565b005b610356600480360381019061035191906123be565b61084e565b604051610363919061225d565b60405180910390f35b610374610885565b005b610390600480360381019061038b91906123be565b6108ff565b005b6103ac60048036038101906103a7919061257f565b61097d565b005b6103b6610991565b6040516103c3919061225d565b60405180910390f35b6103e660048036038101906103e191906125ac565b6109a8565b6040516103f3919061240d565b60405180910390f35b6104046109f1565b005b610420600480360381019061041b91906123be565b610a05565b005b61042a610a25565b005b610434610a9f565b60405161044191906125e8565b60405180910390f35b610464600480360381019061045f9190612603565b610ac9565b60405161047191906125e8565b60405180910390f35b610494600480360381019061048f9190612508565b610af8565b6040516104a1919061225d565b60405180910390f35b6104b2610b62565b6040516104bf9190612308565b60405180910390f35b6104d0610bf4565b6040516104dd91906124ed565b60405180910390f35b61050060048036038101906104fb91906123be565b610bfb565b60405161050d919061225d565b60405180910390f35b610530600480360381019061052b91906123be565b610c72565b60405161053d919061225d565b60405180910390f35b610560600480360381019061055b91906124b1565b610c95565b60405161056d919061240d565b60405180910390f35b61057e610cb9565b60405161058b91906124ed565b60405180910390f35b6105ae60048036038101906105a99190612508565b610cdd565b005b6105ca60048036038101906105c59190612643565b610cfe565b6040516105d7919061240d565b60405180910390f35b6105e8610d85565b6040516105f591906124ed565b60405180910390f35b610618600480360381019061061391906125ac565b610da9565b005b60007f5a05180f000000000000000000000000000000000000000000000000000000007bffffffffffffffffffffffffffffffffffffffffffffffffffffffff1916827bffffffffffffffffffffffffffffffffffffffffffffffffffffffff1916148061068d575061068c82610e2c565b5b9050919050565b6060600580546106a3906126b2565b80601f01602080910402602001604051908101604052809291908181526020018280546106cf906126b2565b801561071c5780601f106106f15761010080835404028352916020019161071c565b820191906000526020600020905b8154815290600101906020018083116106ff57829003601f168201915b5050505050905090565b600080610731610ea6565b905061073e818585610eae565b600191505092915050565b6000600454905090565b60008061075e610ea6565b905061076b858285611077565b610776858585611103565b60019150509392505050565b6000806000838152602001908152602001600020600101549050919050565b6107aa82610782565b6107b38161137c565b6107bd8383611390565b505050565b60006012905090565b6107d3610ea6565b73ffffffffffffffffffffffffffffffffffffffff168173ffffffffffffffffffffffffffffffffffffffff1614610840576040517f08c379a000000000000000000000000000000000000000000000000000000000815260040161083790612755565b60405180910390fd5b61084a82826113c4565b5050565b600080610859610ea6565b905061087a81858561086b8589610cfe565b61087591906127a4565b610eae565b600191505092915050565b6108b67f65d7a28e3265b37a6474929f336521b332c1681b933f6cb9f3376673440d862a6108b1610ea6565b610af8565b6108f5576040517f08c379a00000000000000000000000000000000000000000000000000000000081526004016108ec9061284a565b60405180910390fd5b6108fd6113f8565b565b6109307f9f2df0fed2c77648de5860a4cc508cd0818c85b8b8a1ab4ceeef8d981c8956a661092b610ea6565b610af8565b61096f576040517f08c379a0000000000000000000000000000000000000000000000000000000008152600401610966906128dc565b60405180910390fd5b610979828261145b565b5050565b61098e610988610ea6565b826115b2565b50565b6000600760009054906101000a900460ff16905090565b6000600260008373ffffffffffffffffffffffffffffffffffffffff1673ffffffffffffffffffffffffffffffffffffffff168152602001908152602001600020549050919050565b6109f9611781565b610a0360006117ff565b565b610a1782610a11610ea6565b83611077565b610a2182826115b2565b5050565b610a567f65d7a28e3265b37a6474929f336521b332c1681b933f6cb9f3376673440d862a610a51610ea6565b610af8565b610a95576040517f08c379a0000000000000000000000000000000000000000000000000000000008152600401610a8c9061296e565b60405180910390fd5b610a9d6118c5565b565b6000600760019054906101000a900473ffffffffffffffffffffffffffffffffffffffff16905090565b6000610af0826001600086815260200190815260200160002061192890919063ffffffff16565b905092915050565b600080600084815260200190815260200160002060000160008373ffffffffffffffffffffffffffffffffffffffff1673ffffffffffffffffffffffffffffffffffffffff16815260200190815260200160002060009054906101000a900460ff16905092915050565b606060068054610b71906126b2565b80601f0160208091040260200160405190810160405280929190818152602001828054610b9d906126b2565b8015610bea5780601f10610bbf57610100808354040283529160200191610bea565b820191906000526020600020905b815481529060010190602001808311610bcd57829003601f168201915b5050505050905090565b6000801b81565b600080610c06610ea6565b90506000610c148286610cfe565b905083811015610c59576040517f08c379a0000000000000000000000000000000000000000000000000000000008152600401610c5090612a00565b60405180910390fd5b610c668286868403610eae565b60019250505092915050565b600080610c7d610ea6565b9050610c8a818585611103565b600191505092915050565b6000610cb260016000848152602001908152602001600020611942565b9050919050565b7f9f2df0fed2c77648de5860a4cc508cd0818c85b8b8a1ab4ceeef8d981c8956a681565b610ce682610782565b610cef8161137c565b610cf983836113c4565b505050565b6000600360008473ffffffffffffffffffffffffffffffffffffffff1673ffffffffffffffffffffffffffffffffffffffff16815260200190815260200160002060008373ffffffffffffffffffffffffffffffffffffffff1673ffffffffffffffffffffffffffffffffffffffff16815260200190815260200160002054905092915050565b7f65d7a28e3265b37a6474929f336521b332c1681b933f6cb9f3376673440d862a81565b610db1611781565b600073ffffffffffffffffffffffffffffffffffffffff168173ffffffffffffffffffffffffffffffffffffffff1603610e20576040517f08c379a0000000000000000000000000000000000000000000000000000000008152600401610e1790612a92565b60405180910390fd5b610e29816117ff565b50565b60007f7965db0b000000000000000000000000000000000000000000000000000000007bffffffffffffffffffffffffffffffffffffffffffffffffffffffff1916827bffffffffffffffffffffffffffffffffffffffffffffffffffffffff19161480610e9f5750610e9e82611957565b5b9050919050565b600033905090565b600073ffffffffffffffffffffffffffffffffffffffff168373ffffffffffffffffffffffffffffffffffffffff1603610f1d576040517f08c379a0000000000000000000000000000000000000000000000000000000008152600401610f1490612b24565b60405180910390fd5b600073ffffffffffffffffffffffffffffffffffffffff168273ffffffffffffffffffffffffffffffffffffffff1603610f8c576040517f08c379a0000000000000000000000000000000000000000000000000000000008152600401610f8390612bb6565b60405180910390fd5b80600360008573ffffffffffffffffffffffffffffffffffffffff1673ffffffffffffffffffffffffffffffffffffffff16815260200190815260200160002060008473ffffffffffffffffffffffffffffffffffffffff1673ffffffffffffffffffffffffffffffffffffffff168152602001908152602001600020819055508173ffffffffffffffffffffffffffffffffffffffff168373ffffffffffffffffffffffffffffffffffffffff167f8c5be1e5ebec7d5bd14f71427d1e84f3dd0314c0f7b2291e5b200ac8c7c3b9258360405161106a919061240d565b60405180910390a3505050565b60006110838484610cfe565b90507fffffffffffffffffffffffffffffffffffffffffffffffffffffffffffffffff81146110fd57818110156110ef576040517f08c379a00000000000000000000000000000000000000000000000000000000081526004016110e690612c22565b60405180910390fd5b6110fc8484848403610eae565b5b50505050565b600073ffffffffffffffffffffffffffffffffffffffff168373ffffffffffffffffffffffffffffffffffffffff1603611172576040517f08c379a000000000000000000000000000000000000000000000000000000000815260040161116990612cb4565b60405180910390fd5b600073ffffffffffffffffffffffffffffffffffffffff168273ffffffffffffffffffffffffffffffffffffffff16036111e1576040517f08c379a00000000000000000000000000000000000000000000000000000000081526004016111d890612d46565b60405180910390fd5b6111ec8383836119c1565b6000600260008573ffffffffffffffffffffffffffffffffffffffff1673ffffffffffffffffffffffffffffffffffffffff16815260200190815260200160002054905081811015611273576040517f08c379a000000000000000000000000000000000000000000000000000000000815260040161126a90612dd8565b60405180910390fd5b818103600260008673ffffffffffffffffffffffffffffffffffffffff1673ffffffffffffffffffffffffffffffffffffffff1681526020019081526020016000208190555081600260008573ffffffffffffffffffffffffffffffffffffffff1673ffffffffffffffffffffffffffffffffffffffff168152602001908152602001600020600082825401925050819055508273ffffffffffffffffffffffffffffffffffffffff168473ffffffffffffffffffffffffffffffffffffffff167fddf252ad1be2c89b69c2b068fc378daa952ba7f163c4a11628f55a4df523b3ef84604051611363919061240d565b60405180910390a36113768484846119d1565b50505050565b61138d81611388610ea6565b6119d6565b50565b61139a8282611a5b565b6113bf8160016000858152602001908152602001600020611b3b90919063ffffffff16565b505050565b6113ce8282611b6b565b6113f38160016000858152602001908152602001600020611c4c90919063ffffffff16565b505050565b611400611c7c565b6000600760006101000a81548160ff0219169083151502179055507f5db9ee0a495bf2e6ff9c91a7834c1ba4fdd244a5e8aa4e537bd38aeae4b073aa611444610ea6565b60405161145191906125e8565b60405180910390a1565b600073ffffffffffffffffffffffffffffffffffffffff168273ffffffffffffffffffffffffffffffffffffffff16036114ca576040517f08c379a00000000000000000000000000000000000000000000000000000000081526004016114c190612e44565b60405180910390fd5b6114d6600083836119c1565b80600460008282546114e891906127a4565b9250508190555080600260008473ffffffffffffffffffffffffffffffffffffffff1673ffffffffffffffffffffffffffffffffffffffff168152602001908152602001600020600082825401925050819055508173ffffffffffffffffffffffffffffffffffffffff16600073ffffffffffffffffffffffffffffffffffffffff167fddf252ad1be2c89b69c2b068fc378daa952ba7f163c4a11628f55a4df523b3ef8360405161159a919061240d565b60405180910390a36115ae600083836119d1565b5050565b600073ffffffffffffffffffffffffffffffffffffffff168273ffffffffffffffffffffffffffffffffffffffff1603611621576040517f08c379a000000000000000000000000000000000000000000000000000000000815260040161161890612ed6565b60405180910390fd5b61162d826000836119c1565b6000600260008473ffffffffffffffffffffffffffffffffffffffff1673ffffffffffffffffffffffffffffffffffffffff168152602001908152602001600020549050818110156116b4576040517f08c379a00000000000000000000000000000000000000000000000000000000081526004016116ab90612f68565b60405180910390fd5b818103600260008573ffffffffffffffffffffffffffffffffffffffff1673ffffffffffffffffffffffffffffffffffffffff1681526020019081526020016000208190555081600460008282540392505081905550600073ffffffffffffffffffffffffffffffffffffffff168373ffffffffffffffffffffffffffffffffffffffff167fddf252ad1be2c89b69c2b068fc378daa952ba7f163c4a11628f55a4df523b3ef84604051611768919061240d565b60405180910390a361177c836000846119d1565b505050565b611789610ea6565b73ffffffffffffffffffffffffffffffffffffffff166117a7610a9f565b73ffffffffffffffffffffffffffffffffffffffff16146117fd576040517f08c379a00000000000000000000000000000000000000000000000000000000081526004016117f490612fd4565b60405180910390fd5b565b6000600760019054906101000a900473ffffffffffffffffffffffffffffffffffffffff16905081600760016101000a81548173ffffffffffffffffffffffffffffffffffffffff021916908373ffffffffffffffffffffffffffffffffffffffff1602179055508173ffffffffffffffffffffffffffffffffffffffff168173ffffffffffffffffffffffffffffffffffffffff167f8be0079c531659141344cd1fd0a4f28419497f9722a3daafe3b4186f6b6457e060405160405180910390a35050565b6118cd611cc5565b6001600760006101000a81548160ff0219169083151502179055507f62e78cea01bee320cd4e420270b5ea74000d11b0c9f74754ebdbfc544b05a258611911610ea6565b60405161191e91906125e8565b60405180910390a1565b60006119378360000183611d0f565b60001c905092915050565b600061195082600001611d3a565b9050919050565b60007f01ffc9a7000000000000000000000000000000000000000000000000000000007bffffffffffffffffffffffffffffffffffffffffffffffffffffffff1916827bffffffffffffffffffffffffffffffffffffffffffffffffffffffff1916149050919050565b6119cc838383611d4b565b505050565b505050565b6119e08282610af8565b611a57576119ed81611da3565b6119fb8360001c6020611dd0565b604051602001611a0c9291906130c8565b6040516020818303038152906040526040517f08c379a0000000000000000000000000000000000000000000000000000000008152600401611a4e9190612308565b60405180910390fd5b5050565b611a658282610af8565b611b3757600160008084815260200190815260200160002060000160008373ffffffffffffffffffffffffffffffffffffffff1673ffffffffffffffffffffffffffffffffffffffff16815260200190815260200160002060006101000a81548160ff021916908315150217905550611adc610ea6565b73ffffffffffffffffffffffffffffffffffffffff168173ffffffffffffffffffffffffffffffffffffffff16837f2f8788117e7eff1d82e926ec794901d17c78024a50270940304540a733656f0d60405160405180910390a45b5050565b6000611b63836000018373ffffffffffffffffffffffffffffffffffffffff1660001b61200c565b905092915050565b611b758282610af8565b15611c4857600080600084815260200190815260200160002060000160008373ffffffffffffffffffffffffffffffffffffffff1673ffffffffffffffffffffffffffffffffffffffff16815260200190815260200160002060006101000a81548160ff021916908315150217905550611bed610ea6565b73ffffffffffffffffffffffffffffffffffffffff168173ffffffffffffffffffffffffffffffffffffffff16837ff6391f5c32d9c69d2a47ea670b442974b53935d1edc7fd64eb21e047a839171b60405160405180910390a45b5050565b6000611c74836000018373ffffffffffffffffffffffffffffffffffffffff1660001b61207c565b905092915050565b611c84610991565b611cc3576040517f08c379a0000000000000000000000000000000000000000000000000000000008152600401611cba9061314e565b60405180910390fd5b565b611ccd610991565b15611d0d576040517f08c379a0000000000000000000000000000000000000000000000000000000008152600401611d04906131ba565b60405180910390fd5b565b6000826000018281548110611d2757611d266131da565b5b9060005260206000200154905092915050565b600081600001805490509050919050565b611d56838383612190565b611d5e610991565b15611d9e576040517f08c379a0000000000000000000000000000000000000000000000000000000008152600401611d959061327b565b60405180910390fd5b505050565b6060611dc98273ffffffffffffffffffffffffffffffffffffffff16601460ff16611dd0565b9050919050565b606060006002836002611de3919061329b565b611ded91906127a4565b67ffffffffffffffff811115611e0657611e056132dd565b5b6040519080825280601f01601f191660200182016040528015611e385781602001600182028036833780820191505090505b5090507f300000000000000000000000000000000000000000000000000000000000000081600081518110611e7057611e6f6131da565b5b60200101907effffffffffffffffffffffffffffffffffffffffffffffffffffffffffffff1916908160001a9053507f780000000000000000000000000000000000000000000000000000000000000081600181518110611ed457611ed36131da565b5b60200101907effffffffffffffffffffffffffffffffffffffffffffffffffffffffffffff1916908160001a90535060006001846002611f14919061329b565b611f1e91906127a4565b90505b6001811115611fbe577f3031323334353637383961626364656600000000000000000000000000000000600f861660108110611f6057611f5f6131da565b5b1a60f81b828281518110611f7757611f766131da565b5b60200101907effffffffffffffffffffffffffffffffffffffffffffffffffffffffffffff1916908160001a905350600485901c945080611fb79061330c565b9050611f21565b5060008414612002576040517f08c379a0000000000000000000000000000000000000000000000000000000008152600401611ff990613381565b60405180910390fd5b8091505092915050565b60006120188383612195565b612071578260000182908060018154018082558091505060019003906000526020600020016000909190919091505582600001805490508360010160008481526020019081526020016000208190555060019050612076565b600090505b92915050565b600080836001016000848152602001908152602001600020549050600081146121845760006001826120ae91906133a1565b90506000600186600001805490506120c691906133a1565b90508181146121355760008660000182815481106120e7576120e66131da565b5b906000526020600020015490508087600001848154811061210b5761210a6131da565b5b90600052602060002001819055508387600101600083815260200190815260200160002081905550505b85600001805480612149576121486133d5565b5b60019003818190600052602060002001600090559055856001016000868152602001908152602001600020600090556001935050505061218a565b60009150505b92915050565b505050565b600080836001016000848152602001908152602001600020541415905092915050565b600080fd5b60007fffffffff0000000000000000000000000000000000000000000000000000000082169050919050565b6121f2816121bd565b81146121fd57600080fd5b50565b60008135905061220f816121e9565b92915050565b60006020828403121561222b5761222a6121b8565b5b600061223984828501612200565b91505092915050565b60008115159050919050565b61225781612242565b82525050565b6000602082019050612272600083018461224e565b92915050565b600081519050919050565b600082825260208201905092915050565b60005b838110156122b2578082015181840152602081019050612297565b60008484015250505050565b6000601f19601f8301169050919050565b60006122da82612278565b6122e48185612283565b93506122f4818560208601612294565b6122fd816122be565b840191505092915050565b6000602082019050818103600083015261232281846122cf565b905092915050565b600073ffffffffffffffffffffffffffffffffffffffff82169050919050565b60006123558261232a565b9050919050565b6123658161234a565b811461237057600080fd5b50565b6000813590506123828161235c565b92915050565b6000819050919050565b61239b81612388565b81146123a657600080fd5b50565b6000813590506123b881612392565b92915050565b600080604083850312156123d5576123d46121b8565b5b60006123e385828601612373565b92505060206123f4858286016123a9565b9150509250929050565b61240781612388565b82525050565b600060208201905061242260008301846123fe565b92915050565b600080600060608486031215612441576124406121b8565b5b600061244f86828701612373565b935050602061246086828701612373565b9250506040612471868287016123a9565b9150509250925092565b6000819050919050565b61248e8161247b565b811461249957600080fd5b50565b6000813590506124ab81612485565b92915050565b6000602082840312156124c7576124c66121b8565b5b60006124d58482850161249c565b91505092915050565b6124e78161247b565b82525050565b600060208201905061250260008301846124de565b92915050565b6000806040838503121561251f5761251e6121b8565b5b600061252d8582860161249c565b925050602061253e85828601612373565b9150509250929050565b600060ff82169050919050565b61255e81612548565b82525050565b60006020820190506125796000830184612555565b92915050565b600060208284031215612595576125946121b8565b5b60006125a3848285016123a9565b91505092915050565b6000602082840312156125c2576125c16121b8565b5b60006125d084828501612373565b91505092915050565b6125e28161234a565b82525050565b60006020820190506125fd60008301846125d9565b92915050565b6000806040838503121561261a576126196121b8565b5b60006126288582860161249c565b9250506020612639858286016123a9565b9150509250929050565b6000806040838503121561265a576126596121b8565b5b600061266885828601612373565b925050602061267985828601612373565b9150509250929050565b7f4e487b7100000000000000000000000000000000000000000000000000000000600052602260045260246000fd5b600060028204905060018216806126ca57607f821691505b6020821081036126dd576126dc612683565b5b50919050565b7f416363657373436f6e74726f6c3a2063616e206f6e6c792072656e6f756e636560008201527f20726f6c657320666f722073656c660000000000000000000000000000000000602082015250565b600061273f602f83612283565b915061274a826126e3565b604082019050919050565b6000602082019050818103600083015261276e81612732565b9050919050565b7f4e487b7100000000000000000000000000000000000000000000000000000000600052601160045260246000fd5b60006127af82612388565b91506127ba83612388565b92508282019050808211156127d2576127d1612775565b5b92915050565b7f45524332305072657365744d696e7465725061757365723a206d75737420686160008201527f76652070617573657220726f6c6520746f20756e706175736500000000000000602082015250565b6000612834603983612283565b915061283f826127d8565b604082019050919050565b6000602082019050818103600083015261286381612827565b9050919050565b7f45524332305072657365744d696e7465725061757365723a206d75737420686160008201527f7665206d696e74657220726f6c6520746f206d696e7400000000000000000000602082015250565b60006128c6603683612283565b91506128d18261286a565b604082019050919050565b600060208201905081810360008301526128f5816128b9565b9050919050565b7f45524332305072657365744d696e7465725061757365723a206d75737420686160008201527f76652070617573657220726f6c6520746f207061757365000000000000000000602082015250565b6000612958603783612283565b9150612963826128fc565b604082019050919050565b600060208201905081810360008301526129878161294b565b9050919050565b7f45524332303a2064656372656173656420616c6c6f77616e63652062656c6f7760008201527f207a65726f000000000000000000000000000000000000000000000000000000602082015250565b60006129ea602583612283565b91506129f58261298e565b604082019050919050565b60006020820190508181036000830152612a19816129dd565b9050919050565b7f4f776e61626c653a206e6577206f776e657220697320746865207a65726f206160008201527f6464726573730000000000000000000000000000000000000000000000000000602082015250565b6000612a7c602683612283565b9150612a8782612a20565b604082019050919050565b60006020820190508181036000830152612aab81612a6f565b9050919050565b7f45524332303a20617070726f76652066726f6d20746865207a65726f2061646460008201527f7265737300000000000000000000000000000000000000000000000000000000602082015250565b6000612b0e602483612283565b9150612b1982612ab2565b604082019050919050565b60006020820190508181036000830152612b3d81612b01565b9050919050565b7f45524332303a20617070726f766520746f20746865207a65726f20616464726560008201527f7373000000000000000000000000000000000000000000000000000000000000602082015250565b6000612ba0602283612283565b9150612bab82612b44565b604082019050919050565b60006020820190508181036000830152612bcf81612b93565b9050919050565b7f45524332303a20696e73756666696369656e7420616c6c6f77616e6365000000600082015250565b6000612c0c601d83612283565b9150612c1782612bd6565b602082019050919050565b60006020820190508181036000830152612c3b81612bff565b9050919050565b7f45524332303a207472616e736665722066726f6d20746865207a65726f20616460008201527f6472657373000000000000000000000000000000000000000000000000000000602082015250565b6000612c9e602583612283565b9150612ca982612c42565b604082019050919050565b60006020820190508181036000830152612ccd81612c91565b9050919050565b7f45524332303a207472616e7366657220746f20746865207a65726f206164647260008201527f6573730000000000000000000000000000000000000000000000000000000000602082015250565b6000612d30602383612283565b9150612d3b82612cd4565b604082019050919050565b60006020820190508181036000830152612d5f81612d23565b9050919050565b7f45524332303a207472616e7366657220616d6f756e742065786365656473206260008201527f616c616e63650000000000000000000000000000000000000000000000000000602082015250565b6000612dc2602683612283565b9150612dcd82612d66565b604082019050919050565b60006020820190508181036000830152612df181612db5565b9050919050565b7f45524332303a206d696e7420746f20746865207a65726f206164647265737300600082015250565b6000612e2e601f83612283565b9150612e3982612df8565b602082019050919050565b60006020820190508181036000830152612e5d81612e21565b9050919050565b7f45524332303a206275726e2066726f6d20746865207a65726f2061646472657360008201527f7300000000000000000000000000000000000000000000000000000000000000602082015250565b6000612ec0602183612283565b9150612ecb82612e64565b604082019050919050565b60006020820190508181036000830152612eef81612eb3565b9050919050565b7f45524332303a206275726e20616d6f756e7420657863656564732062616c616e60008201527f6365000000000000000000000000000000000000000000000000000000000000602082015250565b6000612f52602283612283565b9150612f5d82612ef6565b604082019050919050565b60006020820190508181036000830152612f8181612f45565b9050919050565b7f4f776e61626c653a2063616c6c6572206973206e6f7420746865206f776e6572600082015250565b6000612fbe602083612283565b9150612fc982612f88565b602082019050919050565b60006020820190508181036000830152612fed81612fb1565b9050919050565b600081905092915050565b7f416363657373436f6e74726f6c3a206163636f756e7420000000000000000000600082015250565b6000613035601783612ff4565b915061304082612fff565b601782019050919050565b600061305682612278565b6130608185612ff4565b9350613070818560208601612294565b80840191505092915050565b7f206973206d697373696e6720726f6c6520000000000000000000000000000000600082015250565b60006130b2601183612ff4565b91506130bd8261307c565b601182019050919050565b60006130d382613028565b91506130df828561304b565b91506130ea826130a5565b91506130f6828461304b565b91508190509392505050565b7f5061757361626c653a206e6f7420706175736564000000000000000000000000600082015250565b6000613138601483612283565b915061314382613102565b602082019050919050565b600060208201905081810360008301526131678161312b565b9050919050565b7f5061757361626c653a2070617573656400000000000000000000000000000000600082015250565b60006131a4601083612283565b91506131af8261316e565b602082019050919050565b600060208201905081810360008301526131d381613197565b9050919050565b7f4e487b7100000000000000000000000000000000000000000000000000000000600052603260045260246000fd5b7f45524332305061757361626c653a20746f6b656e207472616e7366657220776860008201527f696c652070617573656400000000000000000000000000000000000000000000602082015250565b6000613265602a83612283565b915061327082613209565b604082019050919050565b6000602082019050818103600083015261329481613258565b9050919050565b60006132a682612388565b91506132b183612388565b92508282026132bf81612388565b915082820484148315176132d6576132d5612775565b5b5092915050565b7f4e487b7100000000000000000000000000000000000000000000000000000000600052604160045260246000fd5b600061331782612388565b91506000820361332a57613329612775565b5b600182039050919050565b7f537472696e67733a20686578206c656e67746820696e73756666696369656e74600082015250565b600061336b602083612283565b915061337682613335565b602082019050919050565b6000602082019050818103600083015261339a8161335e565b9050919050565b60006133ac82612388565b91506133b783612388565b92508282039050818111156133cf576133ce612775565b5b92915050565b7f4e487b7100000000000000000000000000000000000000000000000000000000600052603160045260246000fdfea2646970667358221220e66b67043524aeb6c80e2b7eb9eb17478f32896f368d4156ea22b696c532e87764736f6c63430008130033",
  "linkReferences": {},
  "deployedLinkReferences": {}
}