{
  "address": "0x0c205AAA8E8c16C16eC29278801b871729121007",
  "abi": [
    {
      "inputs": [
        {
          "internalType": "address",
          "name": "stable_address",
          "type": "address"
        }
      ],
      "stateMutability": "nonpayable",
      "type": "constructor"
    },
    {
      "inputs": [],
      "name": "_stable_address",
      "outputs": [
        {
          "internalType": "address",
          "name": "",
          "type": "address"
        }
      ],
      "stateMutability": "view",
      "type": "function"
    },
    {
      "inputs": [
        {
          "internalType": "address",
          "name": "from",
          "type": "address"
        },
        {
          "internalType": "address",
          "name": "to",
          "type": "address"
        },
        {
          "internalType": "uint256",
          "name": "amount",
          "type": "uint256"
        }
      ],
      "name": "transfer",
      "outputs": [
        {
          "internalType": "bool",
          "name": "",
          "type": "bool"
        }
      ],
      "stateMutability": "nonpayable",
      "type": "function"
    }
  ],
  "transactionHash": "0xb9f1b4b1f6aedfc6ae39715f70f7f83ec14c5951c89fa47d58d126ca83a1e17b",
  "args": [
    "0xA0b86991c6218b36c1d19D4a2e9Eb0cE3606eB48"
  ],
  "numDeployments": 1,
  "solcInputHash": "71b164ce3bd2d33fe68ab7c1a30ad768",
  "bytecode": "0x608060405234801561001057600080fd5b50604051610708380380610708833981810160405281019061003291906100db565b806000806101000a81548173ffffffffffffffffffffffffffffffffffffffff021916908373ffffffffffffffffffffffffffffffffffffffff16021790555050610108565b600080fd5b600073ffffffffffffffffffffffffffffffffffffffff82169050919050565b60006100a88261007d565b9050919050565b6100b88161009d565b81146100c357600080fd5b50565b6000815190506100d5816100af565b92915050565b6000602082840312156100f1576100f0610078565b5b60006100ff848285016100c6565b91505092915050565b6105f1806101176000396000f3fe608060405234801561001057600080fd5b50600436106100365760003560e01c80634b9c23c91461003b578063beabacc814610059575b600080fd5b610043610089565b60405161005091906102e6565b60405180910390f35b610073600480360381019061006e9190610368565b6100ad565b60405161008091906103d6565b60405180910390f35b60008054906101000a900473ffffffffffffffffffffffffffffffffffffffff1681565b60008073ffffffffffffffffffffffffffffffffffffffff168373ffffffffffffffffffffffffffffffffffffffff160361011d576040517f08c379a00000000000000000000000000000000000000000000000000000000081526004016101149061044e565b60405180910390fd5b60008054906101000a900473ffffffffffffffffffffffffffffffffffffffff1673ffffffffffffffffffffffffffffffffffffffff166370a08231856040518263ffffffff1660e01b815260040161017691906102e6565b602060405180830381865afa158015610193573d6000803e3d6000fd5b505050506040513d601f19601f820116820180604052508101906101b79190610483565b8211156101f9576040517f08c379a00000000000000000000000000000000000000000000000000000000081526004016101f0906104fc565b60405180910390fd5b60008054906101000a900473ffffffffffffffffffffffffffffffffffffffff1673ffffffffffffffffffffffffffffffffffffffff166323b872dd8585856040518463ffffffff1660e01b81526004016102569392919061052b565b6020604051808303816000875af1158015610275573d6000803e3d6000fd5b505050506040513d601f19601f82011682018060405250810190610299919061058e565b50600190509392505050565b600073ffffffffffffffffffffffffffffffffffffffff82169050919050565b60006102d0826102a5565b9050919050565b6102e0816102c5565b82525050565b60006020820190506102fb60008301846102d7565b92915050565b600080fd5b61030f816102c5565b811461031a57600080fd5b50565b60008135905061032c81610306565b92915050565b6000819050919050565b61034581610332565b811461035057600080fd5b50565b6000813590506103628161033c565b92915050565b60008060006060848603121561038157610380610301565b5b600061038f8682870161031d565b93505060206103a08682870161031d565b92505060406103b186828701610353565b9150509250925092565b60008115159050919050565b6103d0816103bb565b82525050565b60006020820190506103eb60008301846103c7565b92915050565b600082825260208201905092915050565b7f7472616e7366657220746f20746865207a65726f206164647265737300000000600082015250565b6000610438601c836103f1565b915061044382610402565b602082019050919050565b600060208201905081810360008301526104678161042b565b9050919050565b60008151905061047d8161033c565b92915050565b60006020828403121561049957610498610301565b5b60006104a78482850161046e565b91505092915050565b7f7472616e7366657220616d6f756e7420657863656564732062616c616e636500600082015250565b60006104e6601f836103f1565b91506104f1826104b0565b602082019050919050565b60006020820190508181036000830152610515816104d9565b9050919050565b61052581610332565b82525050565b600060608201905061054060008301866102d7565b61054d60208301856102d7565b61055a604083018461051c565b949350505050565b61056b816103bb565b811461057657600080fd5b50565b60008151905061058881610562565b92915050565b6000602082840312156105a4576105a3610301565b5b60006105b284828501610579565b9150509291505056fea2646970667358221220449a017e7fbe0a4498ec91c8b504d5195319b296d2e6b3b4d1b441bab68e77f764736f6c63430008130033",
  "devdoc": {
    "kind": "dev",
    "methods": {},
    "version": 1
  },
  "userdoc": {
    "kind": "user",
    "methods": {},
    "version": 1
  },
  "storageLayout": {
    "storage": [
      {
        "astId": 83,
        "contract": "contracts/Pay.sol:Pay",
        "label": "_stable_address",
        "offset": 0,
        "slot": "0",
        "type": "t_address"
      }
    ],
    "types": {
      "t_address": {
        "encoding": "inplace",
        "label": "address",
        "numberOfBytes": "20"
      }
    }
  }
}